:100000000C945D080C9485350C945A350C942F355E
:100010000C9404350C94D9340C94AE340C94833481
:100020000C9458340C948E080C948E080C948E0802
:100030000C948E080C94FF360C948E080C948E0849
:100040000C948E080C948E080C948E080C948E08D8
:100050000C94D4360C948E080C948E080C940E34A8
:100060000C948E080C94E4330C94BA330C948E08E0
:100070000C948E080C948E080C948E080C948E08A8
:100080000C948E080C948E080C948E080C948E0898
:100090000C948E080C948E080C948E080C94B03539
:1000A0000C948E080C948E080C948E080C948E0878
:1000B0000C948E080C948E080C948E080C948E0868
:1000C0000C948E080C948E080C948E080C9490332B
:1000D0000C9466330C948E080C943C330C941233BD
:1000E0000C948E080C94D1270C94820D0C94FF0B69
:1000F0000C94FD0A0C94A6450C94FD250C94E32960
:100100000C94A0460C94000A0C94DA0A0C94024554
:100110000C94B9450C9415280C940B0B0C94BF450A
:100120000C9443430C94930D0C942C280C94EB29C1
:100130000C94A60D0C94EF0A0C94D5290C94E0298C
:100140000C94D8290C94190B0C9454280C947528F1
:100150000C940E0E0C9437090C94DA0D0C940F0BC2
:100160000C9413450C940A260C94EB250C94010B6B
:100170000C94EE290C94AD0D0C94E20A0C94B40985
:100180000C94830D0C943A480C94810D0C94E34527
:100190000C9427450C9426440C944F0A0C94A528E3
:1001A0000C947F370C94D3250C94F90A0C942426D4
:1001B0000C946C290C9428090C94840D0C94261230
:1001C0000C94F3270C9431260C94A4440C942844EA
:1001D0000C94150B0C94E60A0C94140B0C94E20886
:1001E0000C94DE0A0C94D40A0C94F6290C9474290D
:1001F0000C94A6090C94C8080C942A440C94B2469A
:100200000C94110E0C9417260C94F30A0C942444AD
:100210000C94E90A0C942C440C9458460C94070B4B
:100220000C947D450C94D2290C94AB460C94FE2979
:100230000C94D42800002100240027002A002D005F
:100240003000330001010000040107010A01000031
:100250002200250028002B002E003100340002016E
:100260000000050108010B0100002000230026000A
:1002700029002C002F0032000001000003010601BC
:10028000090105050505070508080808020202021C
:100290000A0A080804040404010101010101010122
:1002A0000303030303030303040707070C0C0C0CED
:1002B0000C0C0C0C020202020606060606060606D6
:1002C0000B0B0B0B0B0B0B0B010210202008081063
:1002D00020401020408002010201080402010102B6
:1002E000040810204080804020100804020180048F
:1002F00002018040201008040201080402010102EA
:1003000004081020408001020408102040800000F2
:100310000A0B02090C0D0E0807030401000000007F
:1003200000000000000000000000000000000000CD
:10033000000000000000000000001211100000008A
:1003400000000000000000000000000000000000AD
:10035000000000000000000000000000000000009D
:10036000000000000000000000001FCC000C000096
:1003700000000000000008003000600008003000AD
:1003800060000000022003FC1E20022003FC1E204F
:100390000220000000000E1811043FFF10840C78AA
:1003A000000000000F0010840F3800C00778188488
:1003B0000078000000780F8410C411240E9800E427
:1003C00000840008080068007000000000000000C1
:1003D0000000000000000000000007E018182004E2
:1003E00040020000000040022004181807E000004E
:1003F000000000000240024001800FF00180024036
:10040000024000000080008000800FF80080008023
:10041000008000000001000D000E00000000000040
:10042000000000000000008000800080008000804C
:10043000008000800000000C000C000000000000A4
:1004400000000000000000060018006001800600A7
:1004500018002000000007F0080810041004080825
:1004600007F000000000080408041FFC000400045A
:100470000000000000000E0C101410241044118421
:100480000E0C000000000C18100411041104128856
:100490000C700000000000E00320042408241FFC6E
:1004A0000024000000001F9810841104110410881B
:1004B00010700000000007F008881104110418886B
:1004C0000070000000001C00100010FC13001C0055
:1004D0001000000000000E381144108410841144F4
:1004E0000E38000000000700088C104410440888F3
:1004F00007F00000000000000000030C030C0000E7
:1005000000000000000000000001010600000000E3
:1005100000000000000000800140022004100808D4
:1005200010040000022002200220022002200220EB
:1005300002200000000010040808041002200140FE
:100540000080000000000E001200100C106C1080E3
:100550000F00000003E00C1813E4142417C408284B
:1005600007D000000004003C03C41C40074000E426
:10057000001C000410041FFC1104110411040E8857
:100580000070000003E00C181004100410041008A0
:100590001C10000010041FFC1004100410040808B4
:1005A00007F0000010041FFC1104110417C410040C
:1005B0000818000010041FFC1104110017C01000DF
:1005C0000800000003E00C181004100410441C780C
:1005D0000040000010041FFC108400800080108484
:1005E0001FFC10040000100410041FFC1004100471
:1005F0000000000000030001100110011FFE1000A8
:100600001000000010041FFC110403801464181C67
:100610001004000010041FFC100400040004000477
:10062000000C000010041FFC1F0000FC1F001FFC3A
:100630001004000010041FFC0C04030000E010185C
:100640001FFC100007F0080810041004100408082C
:1006500007F0000010041FFC108410801080108030
:100660000F00000007F0081810241024101C080ABE
:1006700007F2000010041FFC1104110011C011301A
:100680000E0C000400000E1C110410841084104491
:100690001C3800001800100010041FFC100410008B
:1006A0001800000010001FF81004000400041004DB
:1006B0001FF8100010001E0011E0001C00701380D5
:1006C0001C0010001FC0103C00E01F0000E0103CA8
:1006D0001FC000001004180C163401C001C01634ED
:1006E000180C100410001C00130400FC13041C0060
:1006F000100000000804101C1064108413041C0473
:10070000101800000000000000007FFE40024002C0
:1007100040020000000030000C0003800060001C5C
:100720000003000000004002400240027FFE000083
:1007300000000000000000002000400040004000D9
:100740002000000000010001000100010001000183
:1007500000010001000040004000200000000000F7
:1007600000000000000000980124014401440144FD
:1007700000FC000410001FFC008801040104008834
:1007800000700000000000700088010401040104F2
:1007900000880000000000700088010401041108B6
:1007A0001FFC0004000000F801440144014401441E
:1007B00000C800000000010401040FFC1104110432
:1007C00011001800000000D601290129012901C9E2
:1007D0000106000010041FFC008401000100010458
:1007E00000FC000400000104190419FC00040004CA
:1007F000000000000000000300010101190119FEC2
:100800000000000010041FFC0024004001B4010C93
:10081000010400000000100410041FFC0004000488
:1008200000000000010401FC0104010001FC0104BE
:10083000010000FC010401FC00840100010001042E
:1008400000FC0004000000F801040104010401049C
:1008500000F80000010101FF008501040104008887
:100860000070000000000070008801040104010510
:1008700001FF00010104010401FC008401040100E6
:1008800001800000000000CC012401240124012487
:100890000198000000000100010007F801040104B4
:1008A00000000000010001F8000400040004010839
:1008B00001FC0004010001800170000C00100160C7
:1008C0000180010001F0010C003001C00030010C7A
:1008D00001F0010000000104018C00740170018C22
:1008E00001040000010101810171000E0018016086
:1008F0000180010000000184010C013401440184E5
:10090000010C0000000000000000000001003EFC9F
:10091000400240020000000000000000FFFF000055
:10092000000000000000400240023EFC0100000008
:1009300000000000000060008000800040004000D7
:100940002000200000000000000000000000000067
:10095000000000003F4000000000000000003000E8
:10096000400030004000000009000BC03D000BC0FB
:100970003D00090018C024407FE022403180000083
:10098000180024C01B000D803240018003801C40F1
:1009900027401C800740004010006000000000005D
:1009A000000000000000000000001F8020404020E8
:1009B0000000402020401F800000000009000600C9
:1009C0001F80060009000000040004003F800400AE
:1009D00004000000001000600000000000000000A3
:1009E00004000400040004000400000000000040B3
:1009F0000000000000000000002001C006003800D8
:100A0000400000001F802040204020401F80000048
:100A1000000010403FC000400000000018C021400E
:100A200022402440184000001080204024402440F0
:100A30001B80000002000D0011003FC001400000BB
:100A40003C80244024402440238000001F80244018
:100A500024403440038000003000200027C03800CC
:100A6000200000001B802440244024401B80000004
:100A70001C0022C0224022401F8000000000000015
:100A800008400000000000000000000004600000BA
:100A900000000000000004000A0011002080404017
:100AA0000900090009000900090000000000404099
:100AB000208011000A0004001800200023402400B8
:100AC000180000001F802040274029401F400000E0
:100AD000004007C039000F0001C0004020403FC067
:100AE000244024401B8000001F80204020402040E4
:100AF0003080000020403FC0204020401F80000088
:100B000020403FC024402E4030C0000020403FC065
:100B100024402E00300000000F00108020402240B2
:100B20003380020020403FC0040004003FC020404A
:100B3000204020403FC02040204000000060202096
:100B400020203FC02000200020403FC024400B0058
:100B500030C0204020403FC020400040004000C046
:100B60003FC03C0003C03C003FC0000020403FC0ED
:100B70000C4023003FC020001F8020402040204028
:100B80001F80000020403FC02440240018000000C7
:100B90001F802140214020E01FA0000020403FC0D6
:100BA0002440260019C0004018C0244024402240A0
:100BB00031800000300020403FC020403000000065
:100BC00020003F80004000403F80200020003E0089
:100BD00001C0070038002000380007C03C0007C0F3
:100BE00038000000204039C0060039C02040000015
:100BF0002000384007C0384020000000304021C0AD
:100C00002640384020C00000000000007FE0402067
:100C100040200000000070000C0003800040000035
:100C20000000402040207FE0000000000000200085
:100C30004000200000000000001000100010001014
:100C40000010001000000000400000000000000044
:100C5000000002800540054003C0004020003FC066
:100C6000044004400380000000000380044004406E
:100C70000640000000000380044024403FC00040C4
:100C800000000380054005400340000000000440D0
:100C90001FC0244024402000000002E00550055001
:100CA0000650042020403FC00440040003C0004020
:100CB0000000044027C000400000000000100010A9
:100CC000041027E00000000020403FC00140070062
:100CD00004C00440204020403FC0004000400000CD
:100CE00007C0040007C0040003C00000044007C0A0
:100CF0000440040003C0004000000380044004409E
:100D000003800000041007F004500440038000003A
:100D1000000003800440045007F00010044007C0A6
:100D200002400400040000000000064005400540A9
:100D300004C00000000004001F80044000400000C8
:100D4000040007800040044007C000400400070082
:100D500004C0018006000400060001C0070001C0B5
:100D600006000000044006C0010006C00440000068
:100D70000410071004E00180060004000000044095
:100D800005C00640044000000000000004007BE0B5
:100D900040200000000000000000FFF00000000004
:100DA000000040207BE004000000000040008000C4
:100DB0004000200020004000000000000000000073
:100DC00000005F00000000000000070007000000B6
:100DD00000147F147F14000000242A7F2A120000D0
:100DE00000231308646200000006090906000000E1
:100DF0000000050300000000001C2241000000006C
:100E00000041221C0000000000082A1C2A080000E3
:100E10000008083E0808000000A060000000000074
:100E200000080808080800000060600000000000DA
:100E30000020100804020000003E5149453E000019
:100E40000000427F40000000006251494946000016
:100E50000022414949360000001814127F1000009A
:100E60000027454545390000003C4A49493000000B
:100E700000017109050300000036494949360000A8
:100E800000064949291E0000000036360000000017
:100E90000000AC6C000000000008142241000000BB
:100EA000001414141414000000412214080000005F
:100EB000000201510906000000324979413E00005C
:100EC000007E0909097E0000007F4949493600007B
:100ED000003E414141220000007F4141221C0000B0
:100EE000007F494949410000007F090909010000CC
:100EF000003E414151720000007F0808087F000059
:100F00000000417F41000000002040413F010000FF
:100F1000007F081422410000007F40404040000054
:100F2000007F020C027F0000007F0408107F000099
:100F3000003E4141413E0000007F090909060000D2
:100F4000003E4151215E0000007F09192946000042
:100F500000264949493200000001017F01010000DB
:100F6000003F4040403F0000001F2040201F000085
:100F7000003F4038403F0000006314081463000045
:100F80000003047804030000006151494543000058
:100F9000007F414100000000000204081020000012
:100FA0000041417F00000000000402010204000033
:100FB00000808080808000000001020400000000AA
:100FC0000020545454780000007F48444438000006
:100FD000003844442800000000384444487F0000A2
:100FE000003854545418000000087E090200000024
:100FF0000018A4A4A47C0000007F0804047800006A
:1010000000007D00000000000080847D00000000E2
:10101000007F10284400000000417F4000000000D5
:10102000007C041804780000007C08047C000000A8
:10103000003844443800000000FC2424180000005C
:1010400000182424FC00000000007C0804000000BC
:10105000004854542400000000047F4400000000B5
:10106000003C40407C000000001C2040201C000090
:10107000003C4030403C0000004428102844000060
:10108000001CA0A07C000000004464544C440000FC
:10109000000836410000000000007F000000000052
:1010A00000413608000000000002010102010000BA
:1010B00000020505020000007F3711241FBECFEF9C
:1010C000D1E2DEBFCDBF00E00CBF19E0A0E0B2E08E
:1010D000E0EEFCE900E00BBF02C007900D92A836DD
:1010E000B107D9F720E1A8E6B9E001C01D92A33607
:1010F000B207E1F718E0CDE5D8E000E006C021979F
:101100000109802FFE010E943B4BCC35D10780E0C6
:101110000807A9F70E9497380C946E4E0C940000B3
:10112000CF93DF93EC01E885F9851995688379837E
:101130008A839B831C821D821E821F8281E08A8794
:10114000DF91CF9108953FB7F8948091A10A9091D3
:10115000A20AA091A30AB091A40A26B5A89B05C033
:101160002F3F19F00196A11DB11D3FBFBA2FA92F26
:10117000982F8827BC01CD01620F711D811D911D23
:1011800042E0660F771F881F991F4A95D1F708958F
:101190002FB7F89460919D0A70919E0A80919F0AE2
:1011A0009091A00A2FBF08950E94C80828EE33E04E
:1011B00040E050E00E94D24ACA01B90108958CBDB6
:1011C0009DBD0895AF92BF92CF92DF92EF92FF92B2
:1011D0000F931F93CF93DF936C017B018B01040F5F
:1011E000151FEB015E01AE18BF08C017D10759F0FB
:1011F0006991D601ED91FC910190F081E02DC6013D
:101200001995892B79F7C501DF91CF911F910F9126
:10121000FF90EF90DF90CF90BF90AF900895FC01CA
:10122000A089B1898C91A689B78982FD0FC09C9154
:10123000818D8F5F8F73228D821749F0A18DAE0F44
:10124000BF2FB11D5D969C93818F08958C91089559
:10125000FC01538D448D252F30E0842F90E0821BBC
:10126000930B541710F0CF96089501970895FC0141
:10127000918D828D981761F0A28DAE0FBF2FB11D99
:101280005D968C91928D9F5F9F73928F90E00895F1
:101290008FEF9FEF08958F929F92AF92BF92CF9260
:1012A000DF92EF92FF920F931F93CF93DF936B0127
:1012B00093ECE92E9DE0F92ED0E0C0E0082F880FD6
:1012C000110B0E94C8086093F40D7093F50D809384
:1012D000F60D9093F70D8CEE9DE00E94370997FF75
:1012E00029C00E94C8088090F40D9090F50DA09040
:1012F000F60DB090F70D681979098A099B0980905D
:10130000F00D9090F10DA090F20DB090F30D6815D6
:1013100079058A059B05F8F2CE01DF91CF911F91E7
:101320000F91FF90EF90DF90CF90BF90AF909F9084
:101330008F9008950817190779F3F70181937F01BA
:101340002196CC16DD0609F0BCCFE6CFFC01918DCD
:10135000828D981731F0828DE80FF11D858D90E018
:1013600008958FEF9FEF0895FC01918D228D892FB5
:1013700090E0805C9F4F821B91098F73992708959D
:101380008CEE9DE00E94B40921E0892B09F420E055
:10139000822F089589E89EE00E94B40921E0892BFC
:1013A00009F420E0822F089586E29FE00E94B409AC
:1013B00021E0892B09F420E0822F0895FC01A48DFF
:1013C000A80FB92FB11DA35ABF4F2C91848D90E067
:1013D00001968F739927848FA689B7892C93A0894A
:1013E000B1898C91837080648C93938D848D9813D4
:1013F00006C00288F389E02D80818F7D8083089567
:10140000EF92FF920F931F93CF93DF93EC0181E054
:10141000888F9B8D8C8D98131AC0E889F9898081FB
:1014200085FF15C09FB7F894EE89FF896083E8892E
:10143000F98980818370806480839FBF81E090E020
:10144000DF91CF911F910F91FF90EF900895F62EAD
:101450000B8D10E00F5F1F4F0F731127E02E8C8D47
:101460008E110CC00FB607FCFACFE889F98980818C
:1014700085FFF5CFCE010E94DE09F1CFEB8DEC0F99
:10148000FD2FF11DE35AFF4FF0829FB7F8940B8FA9
:10149000EA89FB8980818062CFCF0C94000ACF93C8
:1014A000DF93EC01888D8823B9F0AA89BB89E8898C
:1014B000F9898C9185FD03C0808186FD0DC00FB632
:1014C00007FCF7CF8C9185FFF2CF808185FFEDCFB0
:1014D000CE010E94DE09E9CFDF91CF910895CF932D
:1014E000DF93EC010E944F0AEA89FB8980818F7E9D
:1014F0008083EA89FB898081877F8083EA89FB89F1
:1015000080818F778083EA89FB8980818F7D8083CA
:101510008A8D898FDF91CF91089580E090E0892BAB
:1015200029F00E94D40981110E94000080E090E01F
:10153000892B49F080E090E0892B29F00E9400007F
:1015400081110E94000080E090E0892B29F00E9428
:10155000CA0981110E94000080E090E0892B29F0E7
:101560000E94C00981110C940000089581508231BD
:1015700008F05AC0E82FF0E08827EE53F54F8F4F60
:101580000C943B4BE20AE60AD40ADA0ADE0A140B90
:10159000E90AEF0AF30AF90AFD0A010B070B0B0B24
:1015A000140B0F0B150B190B809180008F77809314
:1015B00080000895809180008F7DF9CF8091800018
:1015C000877FF5CF84B58F7784BD089584B58F7DEF
:1015D000FBCF8091B0008F778093B0000895809109
:1015E000B0008F7DF9CF809190008F77809390002D
:1015F0000895809190008F7DF9CF80919000877F32
:10160000F5CF8091A0008F778093A00008958091FE
:10161000A0008F7DF9CF8091A000877FF5CF8091CA
:1016200020018F77809320010895809120018F7D84
:10163000F9CF80912001877FF5CFCF93DF93282FBB
:1016400030E0F901E25FFC4F8491F901E853FD4F6E
:10165000D491F901EE57FD4FC491CC23A1F0811133
:101660000E94B60AEC2FF0E0EE0FFF1FE859FD4F85
:10167000A591B491EC91ED2381E090E009F480E034
:10168000DF91CF91089580E090E0FACF1F93CF9340
:10169000DF93282F30E0F901E25FFC4F8491F901DC
:1016A000E853FD4FD491F901EE57FD4FC491CC237F
:1016B000A9F0162F81110E94B60AEC2FF0E0EE0F70
:1016C000FF1FE25BFD4FA591B4918FB7F894EC91A9
:1016D000111108C0D095DE23DC938FBFDF91CF912D
:1016E0001F910895DE2BF8CFCF93DF9390E0FC019C
:1016F000E853FD4F24918E579D4FFC018491882320
:10170000C9F090E0880F991FFC01EC5CFD4FA5919A
:10171000B491FC01E25BFD4FC591D49161110DC004
:101720009FB7F8948C91209582238C9388812823ED
:1017300028839FBFDF91CF910895623051F49FB706
:10174000F8943C91822F809583238C93E8812E2BF3
:10175000EFCF8FB7F894EC912E2B2C938FBFEACF5D
:1017600090917B00986090937B002091120290E40E
:10177000299F900111248770822B80937C00809197
:101780007A00806480937A0080917A0086FDFCCF95
:10179000809178009091790008958F929F92AF92F6
:1017A000BF92CF92DF92EF92FF924B015C010E94B9
:1017B000A3086B017C010E94A3086C197D098E09A6
:1017C0009F09683E734081059105A8F321E0821AC4
:1017D0009108A108B10888EEC80E83E0D81EE11C6C
:1017E000F11C81149104A104B10429F7FF90EF903A
:1017F000DF90CF90BF90AF909F908F900895089505
:10180000CF92DF92EF92FF920F931F93CF93DF93CC
:10181000EC01CC80DD80EE80FF802A8560E070E006
:10182000CB01222359F0E885F985199508811981A2
:101830002A813B81601B710B820B930B6C0D7D1D0C
:101840008E1D9F1DDF91CF911F910F91FF90EF9003
:10185000DF90CF9008952091770A260F3327331F0A
:1018600021323105ECF42091990DFC0190E080E0EB
:10187000243069F082E00895A091770A2191AC01AB
:101880004B5A554FA40FB52FB11D2C9301968617B7
:1018900098F38091770A680F6093770A80E0089543
:1018A00081E008951092990D81E08093980D109237
:1018B000730D61E084E10E94460B61E085E10E94C6
:1018C000460BE9EBF0E080818E7F808380818D7F05
:1018D000808388E48093B80085E48093BC000895F9
:1018E000CF93DF9391E09093540A8823B9F0C0918D
:1018F000B800D091BA008091BC008A7B8093BC0074
:1019000060E084E10E94460B60E085E10E94460BA6
:101910000E94520CD093BA00C093B800DF91CF91CF
:1019200008958F929F92AF92BF92CF92DF92EF92E3
:10193000FF920F931F93CF93DF93D091C20DD132BB
:1019400008F0D7C0182FC091C10D0E94A3086B01E9
:101950007C018091990D81116BC082E08093990D7B
:101960001093980D8FEF8093970D1092960DD09352
:10197000950DA1EABDE0E5E7FDE080E0D81391C058
:101980001092740D8091740DCC0FC82BC093740D00
:101990008091730D813009F088C01092730D0E9400
:1019A000A3086B017C018091740D8093BB00809132
:1019B0009B0D90919C0DA0919D0DB0919E0D892B3A
:1019C0008A2B8B2BA1F00E94A30800919B0D1091F4
:1019D0009C0D20919D0D30919E0D6C197D098E09F5
:1019E0009F09061717072807390708F442C0809196
:1019F000BC0083FDD8CF85EC8093BC000E94A30877
:101A00006B017C018091990D823009F450C0809166
:101A1000970D8F3F09F46FC08091970D803209F4C4
:101A20006CC08091970D803309F469C084E026C0B2
:101A300080919B0D90919C0DA0919D0DB0919E0D5C
:101A4000892B8A2B8B2B09F484CF0E94A3088090CA
:101A50009B0D90909C0DA0909D0DB0909E0D6C19CB
:101A60007D098E099F0986169706A806B90608F013
:101A700070CF80919A0D0E94700C85E01092A00D9D
:101A80001092C20D10929F0DDF91CF911F910F9177
:101A9000FF90EF90DF90CF90BF90AF909F908F908E
:101AA00008959D9191938F5F69CF85EEA5CF809129
:101AB0009B0D90919C0DA0919D0DB0919E0D892B39
:101AC0008A2B8B2B09F49ECF0E94A30800919B0DBB
:101AD00010919C0D20919D0D30919E0D6C197D09EA
:101AE0008E099F09061717072807390708F08ACFBC
:101AF000C0CF81E0C3CF80E0C1CF82E0BFCF83E021
:101B0000BDCF089508950895E091520D8091510D33
:101B1000E81730F4F0E0ED5AF24F808190E008953C
:101B20008FEF9FEF08959091520D8091510D2FEFFF
:101B30003FEF981748F4E92FF0E0ED5AF24F20817B
:101B400030E09F5F9093520DC90108958091510D2F
:101B50009091520D891B990B0895CF92DF92EF92CD
:101B6000FF920F931F93CF93DF937C01CB018A01E8
:101B700020919F0D222389F0EB016B01C40ED51E2D
:101B8000CC15DD0569F06991D701ED91FC910190CB
:101B9000F081E02DC7011995F3CF642F0E942B0C23
:101BA000C801DF91CF911F910F91FF90EF90DF90CF
:101BB000CF900895CF93DF931F92CDB7DEB769839F
:101BC00020919F0D2223F9F02091C20D203258F070
:101BD00021E030E0FC013383228390E080E00F902D
:101BE000DF91CF9108958091A00DE82FF0E0EF559F
:101BF000F24F998190838F5F8093A00D8093C20DE7
:101C000081E090E0ECCF61E0CE0101960E942B0CC8
:101C1000F7CF682F83EC9FE00C94DA0D90E080E022
:101C200008950895FC01E61BF70B681779071CF06F
:101C3000FB01E81BF90B9C01241B350B48175907C6
:101C40001CF09A01281B390BDA01A61BB70B64178D
:101C500075071CF0DB01A41BB50B2E173F075CF0CA
:101C6000AE17BF072CF0860F971F9595879508959F
:101C7000E217F3072CF0840F951FA217B307ACF7F8
:101C8000640F751FCB01F1CF0CB405FC0DC09EBDD8
:101C900000000DB407FEFDCF9EB58EBD00000DB453
:101CA00007FEFDCF8EB508958EBD00000DB407FE72
:101CB000FDCF8EB59EBD00000DB407FEFDCF9EB5D5
:101CC000089560E08BE10E94460B60E08DE10E9488
:101CD000460B80E991E09093180D8093170D1092B8
:101CE000150D1092140D08954F925F926F927F928E
:101CF0008F929F92AF92BF92CF92DF92EF92FF921C
:101D00000F931F93CF93DF9300D000D0CDB7DEB7F2
:101D10009E838D832A013B01FC01008511856801AA
:101D2000F12CE12C8285882309F455C080809180B4
:101D3000A280B380A7019801281939094A095B09D3
:101D400064817581868197810E94034BA701980168
:101D50000E94A84A29833A834B835C83A50194019E
:101D6000C301B2010E94034B89809A80AB80BC8082
:101D7000860E971EA81EB91EED81FE818482958273
:101D8000A682B78216950795ED81FE8164817581E3
:101D900086819781600F711F811D911DA70196019A
:101DA0000E94A84ACA01B90126960FB6F894DEBF70
:101DB0000FBECDBFDF91CF911F910F91FF90EF909C
:101DC000DF90CF90BF90AF909F908F907F906F905B
:101DD0005F904F900895AB019201C701B8010E9436
:101DE000034BED81FE81648375838683978381E055
:101DF0008287C8CF8F929F92AF92BF92CF92DF928D
:101E0000EF92FF9281112BC08091500D81110BC078
:101E100090E080E0FF90EF90DF90CF90BF90AF9088
:101E20009F908F9008958FE00E94B00B039784F3EA
:101E30006091340D7091350D90E080E0625E7F4FCF
:101E40008F4F9F4F9B01AC010E94034B29E233E06F
:101E500040E050E00E94A84A6901C601DBCF813012
:101E6000E1F48091500D882399F28FE00E94B00B2D
:101E7000039774F260912E0D70912F0D90E080E029
:101E800064577F4F8F4F9F4F9B01AC010E94034BC4
:101E90002CED39E240E050E0DDCF823011F583E3F4
:101EA00090E10E94000C6C32714081059105A8F20E
:101EB0008FE00E94B00B03970CF4AACF60912A0D1B
:101EC00070912B0D90E080E0625E7F4F8F4F9F4FAF
:101ED0009B01AC010E94034B2CE63AE240E050E04B
:101EE000B9CF8091500D882309F492CF8091340DA1
:101EF0009091350D8436910508F48ACF80912E0D8E
:101F000090912F0D059708F461C02091340D309108
:101F1000350DE0902E0DF0902F0DE091340DF091E5
:101F2000350D40912E0D50912F0DA4E6B0E00E948A
:101F3000F44A4B015C019701AEE1B0E00E94F44A23
:101F4000860E971EA81EB91E80EF880E8AE0981E86
:101F5000A11CB11C9F01AAE0B0E00E94F44A6B01F1
:101F60007C01DA012DEF3FEF4FEF5FEF0E94C74A90
:101F7000A7019601260F371F481F591F28513140CE
:101F800041095109C501B4010E94A84ABA01A90139
:101F90008BED9FE00E94740E6B017C0124E6C2165B
:101FA000D104E104F1042CF093E6C92ED12CE12CEC
:101FB000F12C8AE0C816D104E104F1040CF04DCFF5
:101FC0008AE0C82ED12CE12CF12C47CF8AE090E09A
:101FD00021CF80914C0A811164C01092370D10926C
:101FE000360D2AE936ED3093CC0C2093CB0C88E2E9
:101FF00092E49093BC0A8093BB0A3093BE0A20936C
:10200000BD0A80EE97E09093060D8093050D309306
:102010003E0A20933D0A60EE7FEF7093C00A609302
:10202000BF0A20E038EF30933C0A20933B0A10921D
:10203000420A1092410AEFEFFFEFF093400AE0935B
:102040003F0A1092100D10920F0D90930E0D809379
:102050000D0D3093090D2093080D9093480A80933D
:10206000470A4FE150E05093440A4093430AF093EB
:102070002A0AE093290A9093400D80933F0D7093B4
:102080003C0D60933B0D3093470D2093460D88E443
:102090009AE49093450D8093440D5093430D4093E3
:1020A000420D80914C0A813009F066C01092370DC4
:1020B0001092360D80E098EF9093CC0C8093CB0C6F
:1020C00040E058E55093BC0A4093BB0A9093BE0A87
:1020D0008093BD0A20E832E03093060D2093050D71
:1020E00050933E0A40933D0A41E256EC5093C00A99
:1020F0004093BF0A10923C0A10923B0A1092420A87
:102100001092410A67E07CEF7093400A60933F0AA7
:102110001092100D10920F0D60EE77E070930E0D7F
:1021200060930D0D9093090D8093080D3093480A2C
:102130002093470A6CE470E07093440A6093430A6A
:1021400090932A0A8093290A3093400D20933F0DE3
:1021500050933C0D40933B0D9093470D8093460D5B
:1021600088E49AE49093450D8093440D80EE9FEFB0
:102170009093430D8093420D80914C0A823009F078
:1021800064C01092370D1092360D2BE43BE630936D
:10219000CC0C2093CB0C88E49AE49093BC0A8093F7
:1021A000BB0A3093BE0A2093BD0A40E852E0509328
:1021B000060D4093050D90933E0A80933D0A61E21F
:1021C00076EC7093C00A6093BF0A10923C0A10929A
:1021D0003B0A1092420A1092410A9093400A80935F
:1021E0003F0A1092100D10920F0D20EE37E0309341
:1021F0000E0D20930D0D20E038EF3093090D209344
:10220000080D5093480A4093470AECE4F0E0F0933D
:10221000440AE093430A30932A0A2093290A5093F0
:10222000400D40933F0D70933C0D60933B0D3093F8
:10223000470D2093460D9093450D8093440D80EEFD
:102240009FEF9093430D8093420D0895813041F0AC
:1022500028F08230D1F0833049F108950C94610E5A
:1022600061E08BE10E94460B60E08DE10E94460B2D
:1022700084EF91E09093180D8093170D8CE791E017
:102280009093150D8093140D089560E08BE10E94EA
:10229000460B61E08DE10E94460B86E292E090934E
:1022A000180D8093170D84EA91E0EACF61E08BE18D
:1022B0000E94460B61E08DE10E94460B84EC99E0A0
:1022C0009093180D8093170D80EE91E0D9CFF8947C
:1022D0008BE00E94B00B789488389105FCF08F3B1E
:1022E0009105F4F0863F9105ECF08C3221E09207E5
:1022F000DCF0833621E09207CCF08A3921E09207A6
:10230000BCF0813D21E09207ACF0883022E09207DA
:102310009CF08E33924094F081E008958AE0089515
:1023200089E0089588E0089587E0089586E008959B
:1023300085E0089584E0089583E0089582E008959B
:10234000F8948BE00E94B00B9C017894863791053D
:102350004CF1835891098534910530F182559109EA
:102360008534910518F1835591098534910500F163
:102370008555910985349105E8F082559109853498
:102380009105D0F08355910985349105B8F08555B4
:10239000910985349105A0F081E02C3033408CF018
:1023A00080E008958AE0089589E0089587E008951F
:1023B00086E0089585E0089584E0089583E0089517
:1023C00082E00895F8948BE00E94B00B78948236F6
:1023D000910564F19C01255631092B33310540F1FB
:1023E000205431092C33310528F121543109273388
:1023F000310510F12C53310927333105F8F02C53F6
:1024000031092C333105E0F0215431092C333105E9
:10241000C8F0215431092C313105B0F02152310975
:1024200081E02C35310588F080E008958AE0089538
:1024300089E0089587E0089586E0089585E008958D
:1024400084E0089583E0089582E00895A8950895B2
:1024500008958EBD00000DB407FEFDCF8EB5089522
:10246000CF93C82F662399F0409AF8948091EB0D92
:1024700081110FC042988CE591E00E94DF088C2FFB
:102480000E942912429A289A7894CF9108954098F0
:10249000ECCF2898F0CFCF93C62F60E00E94301287
:1024A00061E08C2FCF910C9430121F93CF93DF9368
:1024B000182FEB01692F82E00E944B12612F83E0FD
:1024C0000E944B126D2F86E00E944B126C2F87E00A
:1024D000DF91CF911F910C944B12CF93DF938134F6
:1024E00021E0920720F5613F710508F5EA019B01A3
:1024F000BC0180EF90E0821B930B0E94551260E0BC
:1025000082E20E943012409AF8948091EB0D811182
:1025100011C042988CE591E00E94DF088D2F0E9447
:1025200029128C2F0E942912429A289A7894DF91BE
:10253000CF9108952898EECF8F929F92AF92BF923D
:10254000CF92DF92EF92FF920F931F93CF93DF937F
:102550005C01EB017901E60EF71E6A01C80ED91E77
:10256000CE15DF0579F045018C149D0449F0A801D2
:10257000BE01C4010E946D128FEF881A980AF4CF31
:102580002196EECFDF91CF911F910F91FF90EF90A9
:10259000DF90CF90BF90AF909F908F9008952F9233
:1025A0003F924F925F926F927F928F929F92AF92E3
:1025B000BF92CF92DF92EF92FF920F931F93CF9330
:1025C000DF9300D000D000D01F92CDB7DEB76B01F3
:1025D000342E252E7901280126E02E9DA0012F9D65
:1025E000500D11245C834B839A838983E981FA819E
:1025F0008191FA83E983882309F45EC090EE980FF5
:10260000903608F08FE38052990B23E0880F991FD2
:102610002A95E1F74601B12CA12C9C012854324F98
:102620003E832D83ED81FE81EA0DFB1DE491398609
:102630002A86712C612C4E2F50E058874F838F8152
:102640009885062C02C0959587950A94E2F780FF3D
:1026500011C050E4851651E0950660F489859A858D
:10266000803F910538F482019701A701BC01C401A4
:102670000E949C129FEF691A790AE985FA85EE0D8E
:10268000FF1DFA87E987F8E06F167104C1F62FEF96
:10269000A21AB20A8E0C9F1C38E0A316B10409F0EE
:1026A000C1CF4FE3C41641E0D40608F09FCF8B8121
:1026B0009C81C80ED91E9ACF2A960FB6F894DEBF19
:1026C0000FBECDBFDF91CF911F910F91FF90EF9083
:1026D000DF90CF90BF90AF909F908F907F906F9042
:1026E0005F904F903F902F900895FF920F931F930C
:1026F000CF93DF93F82EEB0180914B0D811139C000
:1027000081E08093EB0DE0915602F0E0E75DFD4F34
:102710008081813021F4C091470AD091480AE0912C
:102720005602F0E0E75DFD4F8081823021F4C091D8
:10273000430AD091440A0091360D1091370D25E1DE
:1027400030E040E550E065E170E084EE90E00E940A
:102750009C12F11014C00091BB0A1091BC0A23E036
:1027600030E045E150E064EE70E083EB94E00E94DD
:10277000CF12DF91CF911F910F91FF90089581E0CB
:10278000F8120AC08E0123E030E045E150E064EE2B
:1027900070E087EB94E0EBCF82E0F8120AC08E0184
:1027A00023E030E045E150E064EE70E08BEB94E034
:1027B000DECF83E0F8120AC08E0123E030E045E16D
:1027C00050E064EE70E08FEB94E0D1CF84E0F8123B
:1027D0000AC08E0123E030E045E150E064EE70E095
:1027E00083EC94E0C4CF85E0F8120AC08E0123E0A8
:1027F00030E045E150E064EE70E087EC94E0B7CF64
:1028000086E0F8120AC08E0123E030E045E150E096
:1028100064EE70E08BEC94E0AACF87E0F8120AC077
:102820008E0123E030E045E150E064EE70E08FEC93
:1028300094E09DCF88E0F8120AC08E0123E030E0DA
:1028400045E150E064EE70E088ED94E090CF89E0DF
:10285000F8120AC08E0123E030E045E150E064EE5A
:1028600070E083ED94E083CF8AE0F81282CF8E018E
:1028700023E030E045E150E064EE70E087ED94E065
:1028800076CFFF920F931F93CF93DF9380914B0DE1
:1028900081117EC081E08093EB0DF090490DF11025
:1028A00005C08091DD0C882309F44AC081E0809343
:1028B000DD0C08E212E420E130E044E250E06AE09E
:1028C00070E08EE890E00E949C12C091360DD0918D
:1028D000370DFF2059F08E0123E030E045E150E054
:1028E00064E270E08CED94E00E94CF128E0123E050
:1028F00030E045E150E064E270E08FED94E00E944A
:10290000CF1268EC70E080E090E00E94CD0B009167
:10291000460D1091470D23E030E045E150E064E2C0
:1029200070E08FED94E00E94CF1268EC70E080E0E0
:1029300090E0DF91CF911F910F91FF900C94CD0B00
:1029400080914C0D81112AC00091360D1091370DE8
:1029500025E130E04AE550E065E170E08AE190E091
:102960000E949C1208E212E423E030E045E150E0CE
:1029700064E270E084EE94E00E94CF1220E130E047
:1029800044E250E06AE070E08EE890E00E949C1221
:10299000DF91CF911F910F91FF90089580914C0D81
:1029A0008130B1F70091360D1091370D25E130E0FF
:1029B0004AE550E065E170E08AE190E00E949C12F7
:1029C00000EE1FEF23E030E045E150E064E270E00C
:1029D0008CED94E00E94CF1200913F0D1091400DBC
:1029E000CDCF0F931F9320914B0D21110EC08C0161
:1029F00081E08093EB0D20E130E044E250E06AE0BA
:102A000070E08EE890E00E949C121F910F91089553
:102A1000CF92DF92EF92FF920F931F93CF93DF93AA
:102A20008034E1E09E07C8F4603F7105B0F479019D
:102A30006C01EB018B01040F151FC801003F11054C
:102A400010F08FEE90E0C817D90738F4A701BE0147
:102A5000C6010E946D122196F0CFDF91CF911F9198
:102A60000F91FF90EF90DF90CF900895CF92DF927B
:102A7000EF92FF920F931F93CF93DF938034E1E0A7
:102A80009E07D8F4603F7105C0F479018B01EC0119
:102A90006C01C40ED51EC60120E4C21621E0D20688
:102AA00010F08FE391E0C817D90738F4A701B801F7
:102AB000CE010E946D122196EECFDF91CF911F9132
:102AC0000F91FF90EF90DF90CF9008952F923F925B
:102AD0004F925F926F927F928F929F92AF92BF922E
:102AE000CF92DF92EF92FF920F931F93CF93DF93DA
:102AF00000D01F92CDB7DEB76C017C836B837A0167
:102B000029010091BB0A1091BC0A9801A2010E9400
:102B10000815520182E0A81AB1082B803C809FEF73
:102B2000291A390A46018FEF881A980A9801A501D7
:102B3000B101C4010E9408156090BD0A7090BE0AE0
:102B4000C6018E0D9F1D9A8389839301A2016B811B
:102B50007C810E9408159301A501B10189819A81A8
:102B600001970E9408159801A7016B817C81C6011D
:102B70000E943615570192E0A91AB1089801A501E3
:102B8000B101C4010E9436150B811C81040D151D75
:102B90009301A701B801C6010E943615B801615022
:102BA00071099301A501C4010E9436150091360DEB
:102BB0001091370D920123503109A701435051095B
:102BC0006B817C816E5F7F4FC60102960E949C12D2
:102BD0000F900F900F900F90DF91CF911F910F9159
:102BE000FF90EF90DF90CF90BF90AF909F908F902D
:102BF0007F906F905F904F903F902F9008952F920D
:102C00003F924F925F926F927F928F929F92AF927C
:102C1000BF92CF92DF92EF92FF920F931F93CF93C9
:102C2000DF9300D01F92CDB7DEB76C017C836B833E
:102C30007A0129010091BD0A1091BE0A9801A201F2
:102C40000E940815520182E0A81AB1082B803C802E
:102C50009FEF291A390A46018FEF881A980A9801BE
:102C6000A501B101C4010E9408156090BB0A7090D3
:102C7000BC0AC6018E0D9F1D9A8389839301A20110
:102C80006B817C810E9408159301A501B1018981A6
:102C90009A8101970E9408159801A7016B817C8198
:102CA000C6010E943615570192E0A91AB108980191
:102CB000A501B101C4010E9436150B811C81040DD0
:102CC000151D9301A701B801C6010E943615B80170
:102CD000615071099301A501C4010E94361500914C
:102CE000360D1091370D920124503109A70144503F
:102CF00051096B817C816E5F7F4FC60102960E94F5
:102D00009C120F900F900F900F90DF91CF911F9119
:102D10000F91FF90EF90DF90CF90BF90AF909F907A
:102D20008F907F906F905F904F903F902F9008957D
:102D3000EF92FF920F931F93CF93DF9381E08093E5
:102D4000EB0D2EE130E04CE350E06DEC70E082E8FA
:102D500090E00E94FF15C091CB0CD091CC0C8E015D
:102D600022E030E045ED50E067E870E088EE94E066
:102D70000E94CF122CE230E048E250E068E070E0C0
:102D80008EE090E00E94FF1524E030E042E150E048
:102D900068E170E08DEE94E00E94CF122CE230E00A
:102DA00048E250E068E070E08AE091E00E94FF15A0
:102DB00024E030E042E150E062E171E08FEE94E027
:102DC0000E94CF122CE230E048EC50E068E070E066
:102DD0008CE390E00E9466152CE230E048EC50E075
:102DE00064E470E08CE390E00E946615E090CE0C05
:102DF0000091050D1091060DEE0CFF08F701E35848
:102E0000FB4F22E030E044E150E061E470E080817B
:102E100091810E94CF12F701E95EFD4F8E0122E001
:102E200030E040E550E061E470E0808191810E94F3
:102E3000CF122EE130E040E550E06DE770E088E72A
:102E400090E00E94FF1522E030E044E850E06CE79B
:102E500070E081EF94E00E94CF121092CF0C22E03C
:102E600030E04EEB50E06EEC70E088EF94E00E94B2
:102E7000CF1222E030E04EEB50E06EEF70E083E3E3
:102E80009AE00E94CF1222E030E045ED50E06EEC77
:102E900070E08DEF94E00E94CF1222E030E045ED2B
:102EA00050E064EF70E081E095E00E94CF12DF9186
:102EB000CF911F910F91FF90EF9008952F923F9225
:102EC0004F925F926F927F928F929F92AF92BF923A
:102ED000CF92DF92EF92FF920F931F93CF93DF93E6
:102EE000CDB7DEB72C970FB6F894DEBF0FBECDBFBF
:102EF0007C016B01422E1E830D83822F8695282E26
:102F0000312C8FE391E09C01221933093C832B8300
:102F100049835A83642C712CE981FA818191FA8367
:102F2000E983882309F45CC02B813C812E153F0581
:102F300008F473018052990BAC0124E0440F551F33
:102F40002A95E1F76CE0689F9001699F300D11248C
:102F5000DC86CB86470110E000E0CA018C5A9C4F0A
:102F600098878F83F901EC5BF64FFA87E9873CE09D
:102F7000E985FA85431629F060E1461205C0EF8124
:102F8000F885E00FF11F5490AB84BC8488E0A80E54
:102F9000B11C57FE07C04D815E816B857C85C401E5
:102FA0000E946D12550CEB85FC853196FC87EB87F2
:102FB000CF018C199D096816790661F4FFEF8F1A0D
:102FC0009F0ADC86CB860F5F1F4F041580F2E20C50
:102FD000F31CA2CF2B853C852A153B05D1F6F3CFF8
:102FE0002C960FB6F894DEBF0FBECDBFDF91CF9108
:102FF0001F910F91FF90EF90DF90CF90BF90AF9017
:103000009F908F907F906F905F904F903F902F9008
:1030100008954F925F926F927F928F929F92AF929C
:10302000BF92CF92DF92EF92FF920F931F93CF93B5
:10303000DF933C012C0181E0481A5108620186E0CF
:10304000CC0CDD1C8A95E1F7C091410AD091420A6F
:103050001092EB0DE090BB0AF090BC0A46018AE0AA
:10306000880E911C97014EE150E06BE070E0C401C6
:103070000E94081556018BE0A80EB11C97014CE187
:1030800050E06CE070E0C5010E9408150091BD0A97
:103090001091BE0A98014EE150E06BE070E0C6016D
:1030A000C6960E94081598014CE150E06CE070E073
:1030B000C601C5960E94081597014CE250E06BE0EE
:1030C00070E0C4010E94361597014AE250E06CE0BE
:1030D00070E0C5010E94361598014CE250E069E2AB
:1030E00070E0C4010E94361598014AE250E068E29F
:1030F00070E0C5010E94361500913F0A1091400A08
:1031000022E230E04DE251E06AE070E089E090E0D8
:103110000E949C1283E04816510408F0A5C003E108
:1031200010E09E0142E150E069E170E0C8010E94B8
:103130000815085C1F4F033681E0180791F70FE26E
:1031400010E09E014BE050E060E270E0C8010E9498
:103150000815085C1F4F073481E0180791F7E090CD
:103160003D0AF0903E0A870122E030E04DE650E053
:1031700081E06816710409F022C16DE470E086E018
:1031800095E00E94CF1222E030E04DE650E06DE87D
:1031900070E08AE095E00E94CF1222E030E04DE638
:1031A00050E06DEC70E08EE095E00E94CF1222E0DE
:1031B00030E04DE650E06DE071E082E195E00E9484
:1031C000CF120091050D1091060D22E030E04DE682
:1031D00050E06DE070E086E195E00E94CF128E0134
:1031E00020E142E255E069E070E080E190E00E9479
:1031F0005E1700913B0A10913C0A2CE04AE155E031
:103200006BE070E08EE190E00E945E178E0120E19D
:1032100040E255E069E070E080E490E00E945E17D3
:1032200020E144E255E069E070E088E790E00E9428
:103230005E1720E148E255E069E070E080EB90E045
:103240000E945E1720E14CE255E069E070E088EEF4
:1032500090E00E945E1720E140E355E069E070E0F5
:103260008EE191E00E945E17C3010497029708F077
:1032700095C0E0903D0AF0903E0A870122E030E0E0
:103280004DE650E06DE070E084E06816710409F0EE
:1032900081C186E195E00E94CF1222E030E04DE648
:1032A00050E06DE470E086E095E00E94CF1222E0ED
:1032B00030E04DE650E06DE870E08AE095E00E9475
:1032C000CF1222E030E04DE650E06DE071E082E1A7
:1032D00095E00E94CF120091050D1091060D22E09D
:1032E00030E04DE650E06DEC70E08EE095E00E943D
:1032F000CF1203E110E09E014FE050E06BE170E07F
:10330000C8010E940815045E1F4F073481E01807AA
:1033100091F78E0120E142E255E069E070E080E142
:1033200090E00E945E1700913B0A10913C0A2CE04D
:1033300040E455E06BE070E08EE190E00E945E17A3
:103340008E0120E146E455E069E070E083E490E01E
:103350000E945E1720E149E455E069E070E08BE7E8
:1033600090E00E945E1720E14CE455E069E070E0D7
:1033700083EB90E00E945E1720E14FE455E069E0A6
:1033800070E08BEE90E00E945E1720E142E555E090
:1033900069E070E083E291E00E945E17DF91CF91D7
:1033A0001F910F91FF90EF90DF90CF90BF90AF9063
:1033B0009F908F907F906F905F904F9008956DE0F9
:1033C00070E082E06816710409F074C086E195E04F
:1033D0000E94CF1222E030E04DE650E06DE870E050
:1033E0008AE095E00E94CF1222E030E04DE650E006
:1033F0006DEC70E08EE095E00E94CF1222E030E0AC
:103400004DE650E06DE071E082E195E00E94CF1260
:103410000091050D1091060D22E030E04DE650E0E0
:103420006DE470E086E095E00E94CF128E0120E10D
:1034300042E255E069E070E080E190E00E945E17B2
:1034400000913B0A10913C0A2CE04AE155E06BE008
:1034500070E08EE190E00E945E178E0120E14FEF58
:1034600056E069E070E083E490E00E945E1720E19E
:1034700044E355E069E070E08BE790E00E945E175E
:1034800020E147E355E069E070E083EB90E00E94C3
:103490005E1720E14AE355E069E070E08BEE90E0D2
:1034A0000E945E1720E14DE355E069E070E083E2A1
:1034B00091E0D8CE86E195E00E94CF1222E030E084
:1034C0004DE650E06DE470E086E095E00E94CF129A
:1034D00022E030E04DE650E06DEC70E08EE095E0EB
:1034E0000E94CF1222E030E04DE650E06DE071E046
:1034F00082E195E00E94CF120091050D1091060D1A
:1035000022E030E04DE650E06DE870E08AE095E0C2
:103510000E94CF128E0120E142E255E069E070E0A6
:1035200080E190E00E945E1700913B0A10913C0AF6
:103530002CE04AE155E06BE070E08EE190E00E9403
:103540005E178E0120E147E455E069E070E088E411
:1035500090E00E945E1720E14AE455E069E070E0E7
:1035600080E890E00E945E1720E144E055E069E0C9
:1035700070E088EB90E00E945E1720E140E555E0A6
:1035800069E070E080EF90E00E945E1720E14FEF6D
:1035900056E08BCF86E195E00E94CF1222E030E02A
:1035A0004DE650E06DE470E086E095E00E94CF12B9
:1035B00022E030E04DE650E06DE870E08AE095E012
:1035C0000E94CF1222E030E04DE650E06DEC70E05A
:1035D0008EE095E00E94CF120091050D1091060D2E
:1035E00022E030E04DE650E06DE071E082E195E0F0
:1035F0000E94CF1203E110E09E014FE050E06BE12A
:1036000070E0C8010E940815025F1F4F093381E076
:10361000180791F78E0120E142E255E069E070E081
:1036200080E190E00E945E1700913B0A10913C0AF5
:103630002CE045E555E06BE070E088E290E00E9408
:103640005E178E0120E14BE555E069E070E086E50C
:1036500090E00E945E1720E14FEF56E069E070E0D5
:1036600087E990E00E945E1720E14AE555E069E0B5
:1036700070E08DED90E00E945E1720E144E355E09C
:1036800087CEEF92FF920F931F93CF93DF93109209
:10369000EB0D20E430E040E351E068E070E087E0CB
:1036A00090E00E9466152EE030E04DE150E060E5CC
:1036B00070E082E190E00E9466152EE030E04DE17E
:1036C00050E060E570E082E590E00E9466152EE033
:1036D00030E04DE150E060E570E082E990E00E946A
:1036E00066152EE030E04DE150E060E570E082EDDF
:1036F00090E00E9466152EE030E04DE150E060E57C
:1037000070E082E191E00E9466152EE130E04CE22B
:1037100050E064E670E08AE090E00E94FF15C091FE
:10372000CB0CD091CC0C8E0122E030E04DE650E085
:103730006DE070E086E195E00E94CF122EE130E06E
:103740004CE250E064E670E08AE490E00E94FF15ED
:1037500022E030E04DE650E06DE470E086E095E078
:103760000E94CF122EE130E04CE250E064E670E0BF
:103770008AE890E00E94FF1522E030E04DE650E03C
:103780006DE870E08AE095E00E94CF122EE130E013
:103790004CE250E064E670E08AEC90E00E94FF1595
:1037A00022E030E04DE650E06DEC70E08EE095E018
:1037B0000E94CF122EE130E04CE250E064E670E06F
:1037C0008AE091E00E94FF1522E030E04DE650E0F3
:1037D0006DE071E082E195E00E94CF128091110DC1
:1037E00090E00E94091822E030E04BE950E06AE0E6
:1037F00070E08DE595E00E94CF122EE130E040E5CB
:1038000050E062E970E08FE390E00E946615E0907E
:10381000050DF090060D870122E030E049E950E007
:1038200066E770E088EC97E00E94CF128E0122E0FC
:1038300030E04BE950E065EA70E082E695E00E94F6
:10384000CF122EE130E040E550E062E970E086EE14
:1038500090E00E946615870122E030E049E950E0DF
:1038600068E171E087E695E00E94CF128E0122E0C8
:1038700030E04DEC50E06AE070E089E695E00E94AF
:10388000CF122EE130E040E550E064EC70E08FE3D1
:1038900090E00E94661522E030E04DEC50E065EAD1
:1038A00070E08EE695E00E94CF122EE130E040E518
:1038B00050E064EC70E086EE90E0DF91CF911F91D4
:1038C0000F91FF90EF900C946615CF92DF92EF92DC
:1038D000FF92CF93DF93EC0170E060E090E080E036
:1038E0000E94551260E082E20E943012409A80915C
:1038F000EB0D81111CC04298C12C8CE2D82EEE2415
:10390000E394F12C8D2F0E9429128C2F0E942912F2
:1039100081E0C81AD108E108F108A1F7429A289A73
:10392000DF91CF91FF90EF90DF90CF90089528988E
:10393000E3CFCF93DF93EC01EAE0F1E08081806890
:103940008083EBE0F1E0808180688083389A409A40
:103950003A9A429A209A289A6B9A739860E08AEE73
:103960000E944B1260E28BEE0E944B126CE08CEED8
:103970000E944B1264EC8DEE0E944B1268E388EEBD
:103980000E944B1260E189EE0E944B1261E081EFD0
:103990000E944B1260E182EF0E944B1261E080E4D2
:1039A0000E944B1260E081E40E944B1260E082E4CE
:1039B0000E944B1260E183E40E944B126EE084E4AB
:1039C0000E944B1264E285E40E944B1264E086E49C
:1039D0000E944B1260E587E40E944B1262E088E48B
:1039E0000E944B1263E189E40E944B1269E18AE470
:1039F0000E944B1269E18BE40E944B1266E18CE459
:103A00000E944B126BE180E50E944B1261E381E55D
:103A10000E944B126FE282E50E944B126FE383E536
:103A20000E944B126FE384E50E944B126EE385E522
:103A30000E944B126FE286E50E944B126BE787E50E
:103A40000E944B1269E088E50E944B1266E089E50E
:103A50000E944B1266E08AE50E944B126CE08BE5F7
:103A60000E944B126DE18CE50E944B126CEC8DE5CF
:103A70000E944B126BE18BE10E944B1261E08AE1E4
:103A80000E944B126FE284E20E944B1267E585E2CE
:103A90000E944B1268E883E20E944B1264E388E1C3
:103AA0000E944B1261E089E10E944B1260E081E0CC
:103AB0000E944B1268E88FE10E944B1265E070E0B3
:103AC00080E090E00E94CD0B60E88FE10E944B12F5
:103AD00065E070E080E090E00E94CD0B60E98FE14E
:103AE0000E944B1265E070E080E090E00E94CD0BF8
:103AF00060ED8FE10E944B1265E070E080E090E0A5
:103B00000E94CD0B65E087E10E944B1260E086E3E6
:103B10000E944B1268E388E20E944B1268E270E058
:103B200080E090E00E94CD0B6FE388E20E944B1290
:103B300068E186E10E944B1260E082E00E944B1235
:103B400060E083E00E944B1260E084E00E944B1230
:103B50006FEE85E00E944B1260E086E00E944B12FF
:103B600060E087E00E944B1261E088E00E944B1207
:103B70006FE389E00E944B1261E070E080E090E02A
:103B80000E94CD0BCE010E94651C739ADF91CF91EC
:103B900008952F923F924F925F926F927F928F92F1
:103BA0009F92AF92BF92CF92DF92EF92FF920F93CC
:103BB0001F93CF93DF9300D01F92CDB7DEB7FC01E8
:103BC0002081222309F4A0C09C838B830E94C80813
:103BD0002B013C01EB81FC8181859285A385B48515
:103BE000A3019201281B390B4A0B5B0BDA01C901B7
:103BF0000397A105B10508F487C081E591E00E9413
:103C0000DF0860E0EB81FC8181810E94460B81EB43
:103C10000E94291281EC90E00E94440E8C0163E026
:103C2000169507956A95E1F70150104F81E990E0EC
:103C30000E94440E73E0969587957A95E1F7081BEC
:103C4000190B0039F1E01F070CF44AC081E990E03C
:103C50000E94440E81ED90E00E94440E5C0123E03E
:103C6000B694A7942A95E1F781E990E00E94440E6A
:103C70006C0133E0D694C7943A95E1F781ED90E07A
:103C80000E94440E4C0143E0969487944A95E1F7D4
:103C900081E990E00E94440E1C0153E03694279481
:103CA0005A95E1F780ED90E00E94440E7C0190E08F
:103CB00080E00E94440E9A83898361E0EB81FC815D
:103CC00081810E94460B17FF14C0EB81FC81108696
:103CD0001782EB81FC8182818F3FB1F0108214C08A
:103CE000312C212C912C812CD12CC12CB12CA12C2C
:103CF000D9CF0039F1E01F07F4F4EB81FC81108685
:103D000017820B3411052CF30F900F900F900F902A
:103D1000DF91CF911F910F91FF90EF90DF90CF90A7
:103D2000BF90AF909F908F907F906F905F904F90DB
:103D30003F902F900895EB81FC8110870783A701A6
:103D400083E0569547958A95E1F7B401C5010E9435
:103D5000120E8C0149815A8193E0569547959A95A8
:103D6000E1F7B101C6010E94120EEB81FC81418690
:103D70005286638674861483038396838583C4CFB7
:103D8000CF93DF93EC01F8940E94C91D789481E0F1
:103D90002F813885203931400CF480E0DF91CF91BC
:103DA0000895CF93C82FF89460E089E10E94460BF4
:103DB0008DE591E00E94DF088C2F0E94291261E0BE
:103DC00089E10E94460B7894CF910895CF93DF93B9
:103DD000EC019A01AB01E889F98982E08083211521
:103DE00081EE38074105510599F160E079E08DE3F6
:103DF00090E00E94D24ABA01A901415051096109DB
:103E000071097695679557954795CA01EC85FD85AB
:103E10009083EE85FF858083188EEC89FD8986E08E
:103E20008083EA89FB89808180618083EA89FB89BC
:103E3000808188608083EA89FB89808180688083B3
:103E4000EA89FB8980818F7D8083DF91CF910895FE
:103E5000E889F989108280E190E0D8CFCF93C82F0C
:103E600086E29FE00E946F0AC23089F130F4CC23D1
:103E7000A1F0C13009F1CF910895C430F1F190F172
:103E8000C530C9F740E052EC61E070E086E29FE0A7
:103E90000E94E61E89EC95E00AC040EC52E160E029
:103EA00070E086E29FE00E94E61E84E795E0909332
:103EB000240280932302DFCF40E855E260E070E007
:103EC00086E29FE00E94E61E85E895E0F0CF40E0A4
:103ED0005BE460E070E086E29FE00E94E61E86E917
:103EE00095E0E5CF40E056E960E070E086E29FE0D3
:103EF0000E94E61E87EA95E0DACF40E051EE60E0EE
:103F000070E086E29FE00E94E61E88EB95E0CFCF4E
:103F1000CF93C82F89E89EE00E946F0AC23089F1D2
:103F200030F4CC23A1F0C13009F1CF910895C43011
:103F3000F1F190F1C530C9F740E052EC61E070E07A
:103F400089E89EE00E94E61E89EC95E00AC040ECFC
:103F500052E160E070E089E89EE00E94E61E84E79E
:103F600095E09093180280931702DFCF40E855E266
:103F700060E070E089E89EE00E94E61E85E895E03A
:103F8000F0CF40E05BE460E070E089E89EE00E94F2
:103F9000E61E86E995E0E5CF40E056E960E070E096
:103FA00089E89EE00E94E61E87EA95E0DACF40E0CD
:103FB00051EE60E070E089E89EE00E94E61E88EB2A
:103FC00095E0CFCFFB0101900020E9F73197AF01D9
:103FD000461B570B0C94E2088F929F92AF92BF92B0
:103FE000EF92FF920F931F93CF93DF93CDB7DEB77E
:103FF000A1970FB6F894DEBF0FBECDBF7C01FA01CA
:10400000CB0119A2223008F42AE08E010F5D1F4F68
:10401000822E912CB12CA12CBF01A50194010E94EC
:10402000D24AF901CA016A300CF5605DD8016E937D
:104030008D01232B242B252B79F790E080E010971E
:1040400021F0BD01C7010E94E21FA1960FB6F894AE
:10405000DEBF0FBECDBFDF91CF911F910F91FF90BB
:10406000EF90BF90AF909F908F900895695CDECFE6
:104070000F931F93CF93DF93EC010E94E21F8C01FB
:104080006AED75E0CE010E94E21F800F911FDF9163
:10409000CF911F910F910895813031F46DED75E04E
:1040A00086E29FE00C943820823029F46DED75E0B3
:1040B00089E89EE0F7CF08950F931F9380914B0DF1
:1040C000811121C081E08093EB0D0091360D10919C
:1040D000370D25E130E046E350E06EE870E084EF14
:1040E00090E00E949C128091DC0C81110FC008E2CC
:1040F00012E423E030E04EE850E064EF70E08FED32
:1041000095E00E94CF121F910F910895E091560201
:10411000F0E0E053F34F8081811114C000913F0D16
:104120001091400D23E030E04EE850E064EF70E085
:1041300083EE95E00E94CF1267EE75E08CEE9DE075
:104140000E943820E0915602F0E0E053F34F808166
:104150008130C9F600913B0D10913C0D23E030E019
:104160004EE850E064EF70E08CED94E00E94CF12D6
:104170006BEE75E08CEE9DE01F910F910C94382052
:104180000F931F9380914B0D811176C081E0809336
:10419000EB0D0091360D1091370D25E130E040E137
:1041A00050E06EE870E08BE290E00E949C12E0919B
:1041B0005602F0E0E75DFD4F80818130E1F400912F
:1041C000470A1091480A1093460A0093450A23E0D3
:1041D00030E04EE850E069E270E08BED96E00E943E
:1041E000CF126FEE75E08CEE9DE00E94382060E00B
:1041F00081E20E94460BE0915602F0E0E75DFD4F40
:1042000080818230E1F40091430A1091440A1093B6
:10421000460A0093450A23E030E04EE850E069E2A8
:1042200070E087E495E00E94CF1263EF75E08CEEBA
:104230009DE00E94382061E081E20E94460B80915F
:1042400056026091450A7091460A0E94751380914A
:10425000DC0C882389F081E08093EB0D0091360D12
:104260001091370D25E130E04AE450E06EE870E04F
:1042700089E790E00E949C121F910F9108950F937F
:104280001F93CF93DF9381E08093EB0D22E330E027
:1042900046E750E061E470E085E090E00E94FF15A1
:1042A00022E330E04AE350E061E470E085EC90E026
:1042B0000E94FF1522E330E04AE350E061E470E041
:1042C00081E091E00E94FF1522E330E048E550E0F4
:1042D00069EB70E085E090E00E94FF1522E330E09A
:1042E00048E550E069EB70E083EE90E00E94FF1536
:1042F0008091DC0C2EE130E04CE350E08111C0C035
:1043000067E870E082E890E00E94FF1522E330E069
:1043100046E750E068E070E085E090E00E946615B6
:1043200022E330E046E750E068E070E085EC90E0A2
:104330000E94661522E330E048E550E060E870E056
:1043400085E090E00E94661522E330E048E550E009
:1043500060E870E083EE90E00E94661524E130E0B2
:1043600048E250E068E070E08CE890E00E9466155A
:1043700080914C0D882309F49EC080913F0D90914F
:10438000400D0E94F11480914B0D811162C0C091CB
:10439000CB0CD091CC0C81E08093EB0D80914C0D37
:1043A000813091F48091490D81110EC00091050D6D
:1043B0001091060D23E030E045E150E064E270E04A
:1043C0008CED94E00E94CF128E0123E030E04FE4A8
:1043D00050E06AE170E087EF95E00E94CF1223E0A1
:1043E00030E04FE450E06BED70E08DEE94E00E9421
:1043F000CF1223E030E04FE450E067E171E08FEE50
:1044000094E00E94CF1223E030E047EC50E065E1F9
:1044100070E08CEF95E00E94CF128091DC0C81114E
:104420004FC022E030E04FE850E067E870E080E005
:1044300096E00E94CF120091CB0C1091CC0C23E09F
:1044400030E047EC50E064EF70E083E198E00E94D8
:10445000CF120E94411480915602882309F44DC066
:10446000809156026091050D7091060D0E947513A2
:104470000E94C020DF91CF911F910F910C945C207E
:1044800065E570E082E890E00E94FF1522E330E0ED
:1044900048E550E069EB70E084E790E00E94FF158A
:1044A00022E330E048E550E060E870E084E790E027
:1044B0000E9466152BCF8091440D9091450D61CFE0
:1044C00022E030E04DE550E067E870E080E096E003
:1044D0000E94CF120091050D1091060D23E030E0EF
:1044E00047EC50E06AE770E085E096E00E94CF126A
:1044F0000091050D1091060DA2CF8091560260E04B
:1045000078EFB4CF82E390E0A0E0B0E08093F00DCC
:104510009093F10DA093F20DB093F30D6BE27AE05E
:104520008CEE9DE00E9438206CE170E083E10E94F7
:104530004B09FC01ED53F24F10820895813039F49C
:1045400086E29FE00C94E21F89E89EE0FBCF823078
:10455000D9F30895CF92DF92EF92FF920F931F93BA
:10456000CF93DF93D82F0E94A3086B017C01809129
:10457000990D811165C0CD2F81E08093990D8093B5
:10458000980D9FEF9093970D1092960D9D0F90931D
:10459000950D8093740D8091740D8E6D8093740DC4
:1045A0008091730D813009F07FC01092730D0E94CD
:1045B000A3086B017C018091740D8093BB008091F6
:1045C0009B0D90919C0DA0919D0DB0919E0D892BFE
:1045D0008A2B8B2BA1F00E94A30800919B0D1091B8
:1045E0009C0D20919D0D30919E0D6C197D098E09B9
:1045F0009F09061717072807390708F442C080915A
:10460000BC0083FDD8CF85EC8093BC000E94A3083A
:104610006B017C018091990D813009F447C0809134
:10462000960D8D1710F4C091960DA5E7BDE0E3E55A
:10463000FDE080E08C1751F19D9191938F5FFACF4F
:1046400080919B0D90919C0DA0919D0DB0919E0D20
:10465000892B8A2B8B2B09F48ACF0E94A308009107
:104660009B0D10919C0D20919D0D30919E0D6C190C
:104670007D098E099F09061717072807390708F0D3
:1046800076CF80919A0D0E94700CC0E01092520D6E
:10469000C093510D8C2FDF91CF911F910F91FF90FF
:1046A000EF90DF90CF90089585EEAECF80919B0D77
:1046B00090919C0DA0919D0DB0919E0D892B8A2B00
:1046C0008B2B09F4A7CF0E94A30800919B0D10919A
:1046D0009C0D20919D0D30919E0D6C197D098E09C8
:1046E0009F09061717072807390708F093CFC9CF86
:1046F000CF93C1E0C0939F0D8FE68093C10D1092C0
:10470000A00D1092C20D83E090E00E94090E82E09D
:1047100090E00E94090E81E00E94910C82E090E0FE
:104720000E94AA2261E070E080E090E00E94CD0B40
:1047300060E084E00E94460B8091CA0C0E94D11E6A
:1047400060E08FE10E94460BC093490D1092500D1E
:104750000E9441141092EB0DCF910895CF93C1E0C8
:10476000C0939F0D8FE68093C10D1092A00D109203
:10477000C20D84E090E00E94090E80E00E94910C3E
:1047800082E090E00E94AA2261E070E080E090E088
:104790000E94CD0B83EC9FE00E94930D6AE070E0D5
:1047A00080E090E00E94CD0BC0939F0D1092A00D71
:1047B0001092C20D81E090E00E94090E82E890E024
:1047C0000E94090E81E00E94910C82E090E00E941C
:1047D000AA2261E070E080E090E0CF910C94CD0BD4
:1047E0000F931F9360E084E00E94460B1092500DDF
:1047F0001092350D1092340D10922F0D10922E0D37
:1048000010922B0D10922A0D1091CA0C60E089E1D4
:104810000E94460B8DE591E00E94DF08812F0E94E7
:10482000291261E089E10E94460B60E08FE10E945D
:10483000460B80913F0D9091400D0E94F1140E9413
:10484000AE2360E087E10E94460B61E070E080E00B
:1048500090E00E94CD0B61E087E10E94460B109230
:10486000EB0D00913D0D10913E0D22E030E04BEC40
:1048700050E066E470E08CE492E00E94CF12109267
:10488000380D1F910F910895CF93DF9381E08093AE
:104890009F0D8FE68093C10D1092A00D1092C20D56
:1048A00084E190E00E94090E80E00E94910C82E079
:1048B00090E00E94AA2261E070E080E090E00E9417
:1048C000CD0B83EC9FE00E94930DEC0183EC9FE005
:1048D0000E94930D94E0CC0FDD1F9A95E1F7C07F05
:1048E000DF7082958F708C0F9D2F911DDF91CF917E
:1048F0000895CF93DF9381E080939F0D8FE680939F
:10490000C10D1092A00D1092C20D8EE190E00E9498
:10491000090E80E00E94910C82E090E00E94AA22A1
:1049200061E070E080E090E00E94CD0B83EC9FE0BE
:104930000E94930DEC0183EC9FE00E94930D94E0A4
:10494000CC0FDD1F9A95E1F7C07FDF7082958F70E5
:104950008C0F9D2F911DDF91CF910895AB01813078
:1049600089F4052E000C660B770B2AE086E29FE0A7
:104970000C94EC1F052E000C660B770B2AE089E8DF
:104980009EE0F6CF8230B1F30895CF93DF9361E0DC
:104990008FE10E94460BD091CA0C60E089E10E9431
:1049A000460BC1E08DE591E00E94DF0880E18D0FAC
:1049B0000E94291261E089E10E94460B61E084E0D7
:1049C0000E94460BC093500DC093330DC0932D0D24
:1049D000C093290DC093220DC0931C0D1092320D6F
:1049E00010922C0D1092270D1092210D10921B0D7C
:1049F0008BE00E941D0B892BF9F08091460D909160
:104A0000470D0E94F11460E087E10E94460B61E0CF
:104A100070E080E090E00E94CD0B61E087E10E94B1
:104A2000460B61E572E08CE492E00E945B4B1092D1
:104A3000380DDF91CF9108958091420D9091430DF3
:104A4000E0CF85ED8093BC0080919B0D90919C0DF3
:104A5000A0919D0DB0919E0D0796A11DB11D23E063
:104A6000B695A795979587952A95D1F72091BC0083
:104A700024FD03C01092990D089540919B0D509113
:104A80009C0D60919D0D70919E0D452B462B472BE3
:104A900069F30097A105B10541F02AE22A95F1F7E3
:104AA00000C00197A109B109E1CF80919A0D0C9442
:104AB000700C0C949A4A0F931F93CF93DF9381E06D
:104AC0008093EB0DC091360DD091370D8E0125E10D
:104AD00030E04AE450E06EE870E089E790E00E9440
:104AE0009C1225E130E04AE450E067EC70E089E791
:104AF00090E00E949C120091050D1091060D23E09C
:104B000030E047EC50E06AE770E085E096E00E9414
:104B1000CF1210924A0D61E08DE20E94460B6AE0CE
:104B200070E080E090E00E94CD0B1092C30D82E314
:104B300090E0A0E0B0E08093F00D9093F10DA09391
:104B4000F20DB093F30D6AE076E08CEE9DE00E94EA
:104B5000382065E070E083E10E944B09E091C30DCD
:104B6000E0934B0AE154E43108F035C00E2E000CFE
:104B7000FF0B8827E154FA4D8F4F0C943B4B2426B2
:104B8000EB25EB25EB25FD25D325EB250A26EB258B
:104B9000EB25EB251726EB25EB25EB25EB25EB2568
:104BA000EB25312631260091460D1091470D22E06C
:104BB00030E04EE850E06AE770E08DE096E00E9459
:104BC000CF12E0915602F0E0E053F34F10821092C2
:104BD000DB0C0E945C20E091560280915602F0E0CE
:104BE000E053F34F90E0608147960E945925DF9192
:104BF000CF911F910F910C94F0230091460D1091CD
:104C0000470D22E030E04EE850E06AE770E084E1D2
:104C100096E0D5CF00913B0D10913C0D22E030E0A5
:104C20004EE850E06AE770E08BE196E0C8CF009173
:104C30003B0D10913C0D22E030E04EE850E06AE779
:104C400070E082E296E0BBCF00913F0D1091400DE5
:104C500022E030E04EE850E06AE770E089E296E05A
:104C6000AECF00913F0D1091400D22E030E04EE8B4
:104C700050E060E870E080E396E00E94CF12E0919F
:104C80005602F0E0E053F34F81E080838093DB0C29
:104C90000E945C2082E390E0A0E0B0E08093F00D01
:104CA0009093F10DA093F20DB093F30D66E376E0CF
:104CB0008CEE9DE00E94382068E070E083E10E9465
:104CC0004B098091C30D8053E091C50DE05394E6EC
:104CD000899FE00D11248091C40D80539AE0899F33
:104CE000E00D1124F0E0EE0FFF1FE95AFD4F808127
:104CF00091812AE030E0B9010E94134BCB01B90148
:104D00000E94274B9F938F937F936F9389E396E045
:104D10009F938F931F9285E08F9381E592E09F93FD
:104D20008F930E948B4B1092EB0D00913D0D1091D3
:104D30003E0D22E030E04BEC50E066E470E081E5AF
:104D400092E00E94CF1261E572E08CE492E00E9452
:104D50005B4B8DB79EB70A960FB6F8949EBF0FBEF9
:104D60008DBF39CFEF92FF920F931F93CF9389E4BA
:104D700090E10E94C01E8111FACFC1E0C093EB0DFB
:104D8000E090360DF090370D870125E130E04AE4E0
:104D900050E06EE870E089E790E00E949C1225E107
:104DA00030E04AE450E067EC70E089E790E00E9470
:104DB0009C1280914A0D81116BC08091DB0C811196
:104DC00004C0C093DB0C0E945C200091CB0C1091BE
:104DD000CC0C23E030E047EC50E06AE770E080E480
:104DE00096E00E94CF1200913B0D10913C0D22E005
:104DF00030E04EE850E06AE770E085E496E00E941B
:104E0000CF121092EB0D0091360D1091370D2AE163
:104E100030E04CE450E067EC70E082E490E00E9407
:104E20009C1264E670E080E090E00E94CD0B81E08F
:104E300080934A0D8091500D8823D9F060E084E082
:104E40000E94460B1092500DC091CA0C60E089E19F
:104E50000E94460B8DE591E00E94DF088C2F0E9496
:104E6000291261E089E10E94460B60E08FE10E9417
:104E7000460B60E08DE20E94460B65E070E080E04A
:104E800090E0CF911F910F91FF90EF900C94CD0B7C
:104E9000CF911F910F91FF90EF900C945B25CF93D2
:104EA000C82F8FEF8C0F823078F461E087E00E948A
:104EB000460BC13071F060E086E00E94460B60E076
:104EC00086E00E94740B0DC060E087E00E94460BF4
:104ED000F2CF61E086E00E94740B61E086E00E9400
:104EE000460B8CEF8C0F833058F48CE496E0909353
:104EF00018028093170289E89EE0CF910C946F0A04
:104F000080914A0A0E94881FC33069F482E080932E
:104F10004A0A62E082E190E00E94592580914A0AA3
:104F2000CF910C94881FC73029F483E080934A0AFC
:104F300063E0F0CFCF910895CF92DF92EF92FF928E
:104F40000F931F93CF93DF93D82FC62F81E08093C9
:104F5000EB0DCD2ED12C0091360D1091370D760131
:104F6000EE0CFF1CF701E95EFD4F22E030E040E56A
:104F700050E061E470E0808191810E94CF12D930CD
:104F800090F5F6018827E853F84D8F4F0C943B4B72
:104F9000D12715287528D4282C28F3275428F3273F
:104FA000A5288091E00C8430F1F080914A0AC1304C
:104FB000D1F58F5F80934A0A80914A0A863011F4B6
:104FC00010924A0A80914A0A8F3F19F485E0809333
:104FD0004A0A60914A0A82E190E00E945925809134
:104FE0004A0A0E94881F64E670E080E090E00E9418
:104FF000CD0B0091050D1091060DF701E95EFD4FF7
:1050000022E030E040E550E061E470E08081918191
:105010000E94CF12DF91CF911F910F91FF90EF90DF
:10502000DF90CF9008958150C5CFC0934C0A609116
:105030004C0A82E090E00E94592520914C0A809110
:10504000190290911A026DE576E0211102C06EE618
:1050500076E00E945B4BC7CFC09336026C2F80E195
:1050600090E00E945925809136028823D9F083E48C
:105070001F928F938FE796E09F938F931F9281E10A
:105080008F93809120028F9380911F028F930E94B3
:105090008B4B8DB79EB708960FB6F8949EBF0FBE88
:1050A0008DBFA1CF86E4E4CF8091490AC130D9F405
:1050B0008F5F8093490A8091490A863011F41092DB
:1050C000490A8091490A8F3F19F485E08093490A83
:1050D0006091490A85E190E00E9459258091490A32
:1050E0000E942E1F80CF8150E4CF8091E00CC13010
:1050F00051F58F5F8093E00C8091E00C883011F4C3
:105100001092E00C8091E00C8F3F19F487E08093BF
:10511000E00CC091E00CEC2FF0E0EE0FFF1FE95A1D
:10512000FB4F6081718180911B0290911C020E9453
:105130005B4B6C2F84E190E00E9459258091E00C3C
:105140000E944F2750CF8150D5CF8091CD0C811137
:1051500007C081E996E0909328028093270243CF0D
:105160008091280D8823B1F01092280D60E086E12F
:105170000E94460B82EA96E09093280280932702D1
:105180006091280D83E290E00E94592585E080938C
:10519000270D29CF81E08093280D61E086E10E94F0
:1051A000460B83EB96E0E8CF8091130290911402B6
:1051B000A0911502B0911602C13009F067C00196A6
:1051C000A11DB11D8093130290931402A0931502A8
:1051D000B09316028091130290911402A0911502CF
:1051E000B09116028E379105A105B10564F08DE7E7
:1051F00090E0A0E0B0E08093130290931402A0939B
:105200001502B09316028091130290911402A0919E
:105210001502B09116028B349105A105B10564F415
:105220008BE490E0A0E0B0E080931302909314022E
:10523000A0931502B09316026091130286E190E0EC
:105240000E945925809116028F93809115028F93A9
:10525000809114028F93809113028F9384EC96E0D7
:105260009F938F931F9281E18F9380911E028F9362
:1052700080911D028F930E948B4B8DB79EB70A962B
:105280000FB6F8949EBF0FBE8DBFADCE0197A1099A
:10529000B10998CF0F931F93CF93809156028B3013
:1052A00008F0AFC08091500D8111ABC0E091560263
:1052B000EB30C0F4F0E08827EF59F64D8F4F0C9497
:1052C0003B4B6C297429D229D529D829E029E32917
:1052D000EB29EE29F629FE2965ED76E08CEE9DE0BE
:1052E0000E943820C0E007C069ED76E08CEE9DE0BA
:1052F0000E943820C0E28091DC0C8823F9F0809174
:105300004B0D81111BC0E0915602F0E0E053F34FCA
:1053100080818093DB0C81E08093EB0D0091360D52
:105320001091370D25E130E04AE450E06EE870E07E
:1053300089E790E00E949C120E945C20C093CA0CF6
:1053400080915602C091B90A8C1709F45AC0809115
:10535000CA0C0E94D11E81E08093EB0D6091360D46
:105360007091370D8C2F0E94751380915602809397
:10537000B90A809156026091450A7091460A0E94CE
:1053800075136091560281E090E00E9459250E94B9
:10539000C02062E370E080E090E0CF911F910F9118
:1053A0000C94CD0B6DED76E0A1CF61EE76E09ECF53
:1053B00065EE76E08CEE9DE00E943820C8E09BCF41
:1053C00069EE76E0F7CF6DEE76E08CEE9DE00E9420
:1053D0003820C4E090CF61EF76E0F7CF65EF76E05C
:1053E0008CEE9DE00E943820C2E085CF69EF76E028
:1053F0008CEE9DE00E943820C1E07DCF6DEF76E01D
:105400006DCFCF911F910F9108950C94924A4F92B6
:105410005F926F927F928F929F92AF92BF92CF9244
:10542000DF92EF92FF920F931F93CF93DF93CDB74D
:10543000DEB7C055D1090FB6F894DEBF0FBECDBFA1
:105440008C0193E4E92E9BE0F92E0130110521F047
:1054500081ECE82E8AE0F82EF70101900020E9F7B0
:1054600031976F01CE18DF085701F50181915F0177
:10547000082E000C990B0E944A4BF501319780834E
:10548000C5018E199F09C816D9067CF762E077E03E
:10549000C7010E94714B009739F465E077E0C701BE
:1054A0000E94714B009771F1FC013496AEE4BAE0B2
:1054B0000A9621912D938E179F07D9F71092540ABF
:1054C0008EE49AE00E94154A4B015C01F6ED8F1ABA
:1054D000F6E09F0AA108B1082FE5821621E09206A6
:1054E000A104B10408F06FC38AE080935602809152
:1054F000560290914D0A891709F4F9C3809156021A
:1055000080934D0A68E077E0C7010E94714B892BB8
:1055100009F43CC46BE077E0C7010E94714BFC01C9
:10552000892BF9F094819B3309F0E9C36BE077E0B4
:10553000802F0E949E226091560270E0802F0E9470
:10554000AE24802F0E944C20809156028B3010F0A8
:1055500010925602909156028091B90A98130E94B7
:105560004A2960E177E0C7010E94714B6C01009706
:1055700029F1FC0184818B3371F460E177E0802FA5
:105580000E949E2260914C0D70E0802F0E94AE24FC
:10559000802F0E944C20F6018481803321F41092E8
:1055A0004C0D0E944114F6018481813339F481E06D
:1055B00080934C0D1092490D0E94411465E177E0F3
:1055C000C7010E94714B6C01009709F448C0FC01AF
:1055D00084818B3391F465E177E0802F0E949E22D5
:1055E000E0915602F0E0E75DFD4F608170E0802FB2
:1055F0000E94AE24802F0E944C20F60184818133CA
:10560000A9F4E0915602F0E0E75DFD4F81E0808370
:10561000E091560280915602F0E0E75DFD4F90E088
:10562000608103960E9459250E94C020F601848162
:105630008233A9F4E0915602F0E0E75DFD4F82E08D
:105640008083E091560280915602F0E0E75DFD4FC5
:1056500090E0608103960E9459250E94C0206AE173
:1056600077E0C7010E94714B6C01009771F1FC015A
:1056700084818B3399F46AE177E0802F0E949E2227
:105680008091360267E376E0882311F06FE177E0DE
:10569000802F0E949E22802F0E944C20F601848140
:1056A000863439F41092360260E080E190E00E9486
:1056B0005925F6018481833441F481E080933602D8
:1056C00061E080E190E00E94592561E277E0C70146
:1056D0000E94714B6C01009709F44CC0FC0184815D
:1056E0008B3399F461E277E0802F0E949E228091B3
:1056F0004C0A64E175E0882311F068E177E0802FBF
:105700000E949E22802F0E944C20F60184818434C6
:10571000B1F410924C0A60914C0A82E090E00E9431
:1057200059256EE676E08091190290911A020E9446
:105730005B4B0E94E90F0E94411B0E943F21F60132
:1057400084818E34B9F481E080934C0A60914C0AD4
:1057500082E090E00E9459256DE576E08091190283
:1057600090911A020E945B4B0E94E90F0E94411B1C
:105770000E943F2166E277E0C7010E94714B892BAE
:1057800039F166E277E0802F0E949E220E94792400
:1057900068E270E00E94134B7F936F938BE297E077
:1057A0009F938F931F9284E08F93CE0101966C019B
:1057B0009F938F930E948B4BB601802F0E949E2255
:1057C000802F0E944C200FB6F894DEBF0FBECDBFD5
:1057D0006FE277E0C7010E94714B892B71F06FE295
:1057E00077E0802F0E949E226091DC0C70E0802F79
:1057F0000E94AE24802F0E944C2064E377E0C70112
:105800000E94714B6C01009709F447C0FC01848130
:105810008B3371F464E377E0802F0E949E226091C5
:10582000DB0C70E0802F0E94AE24802F0E944C2061
:10583000F60184818133B9F481E08093DB0CE0913F
:105840005602F0E0E053F34F8083E09156028091DE
:105850005602F0E0E053F34F90E0608147960E94DB
:1058600059250E945C20F60184818033B1F41092A6
:10587000DB0CE0915602F0E0E053F34F1082E09130
:10588000560280915602F0E0E053F34F90E06081C1
:1058900047960E9459250E945C2069E377E0C70182
:1058A0000E94714B892B29F08091DC0C81110E94A0
:1058B000B2266EE377E0C7010E94714B892B89F015
:1058C0006EE377E0802F0E949E2260914B0A0130A8
:1058D00009F074C286E29FE00E944D0A802F0E9468
:1058E0004C2063E477E0C7010E94714B892B71F073
:1058F00063E477E0802F0E949E2260914A0D70E061
:10590000802F0E94AE24802F0E944C2068E477E014
:10591000C7010E94714B892B09F444C06091190D95
:1059200070911A0D809136028111F8C129E0269FED
:10593000C001279F900D112465E070E00E94134B79
:10594000CB01805C9E4F6AE070E00E94274BD62E10
:10595000C72E68E477E0802F0E949E228091360255
:10596000882309F4DDC183E41F928F93CF92DF92E5
:105970008DE497E09F938F931F9284E08F93CE01E5
:1059800001966C019F938F930E948B4BB601802FE1
:105990000E949E22802F0E944C200FB6F894DEBFFA
:1059A0000FBECDBF62E577E0C7010E94714B009743
:1059B00091F1FC01D480F6E4DF1609F4B3C122E5CD
:1059C00081E0D21621F084E4D812FBC182E00E946B
:1059D000FA0E9F938F938D2D0D2C000C990B9F9396
:1059E000DF9287E597E09F938F931F928AE08F93D2
:1059F000FE0131966F01FF93EF930E948B4BB6012E
:105A0000802F0E949E22802F0E944C200FB6F89477
:105A1000DEBF0FBECDBF62E677E0C7010E94714BCB
:105A2000892B09F493C080E00E94FA0ED82EC92E6B
:105A300081E00E94FA0EB82EA92E82E00E94FA0E92
:105A4000982E892E83E00E94FA0E782E692E0E94ED
:105A5000792468E270E00E94134B562E472E0E9474
:105A6000442464E170E00E94134B9B018091190D66
:105A700090911A0D6AE070E00E94134B80913602FB
:105A800081110CC049E0469FC001479F900D112431
:105A900065E070E00E94134B605E7F4FE09156021C
:105AA0009091560280914C0D4091DB0C1F924F93C8
:105AB00040914A0D1F924F9340911C0D1F924F939E
:105AC0004091220D1F924F934091290D1F924F93A9
:105AD00040912D0D1F924F934091330D1F924F9384
